{
  "_format": "hh-sol-artifact-1",
  "contractName": "EventTicketPlatform",
  "sourceName": "contracts/Detickets.sol",
  "abi": [
    {
      "inputs": [
        {
          "internalType": "uint256",
          "name": "initialFeeBps",
          "type": "uint256"
        }
      ],
      "stateMutability": "nonpayable",
      "type": "constructor"
    },
    {
      "inputs": [],
      "name": "AlreadyInactive",
      "type": "error"
    },
    {
      "inputs": [],
      "name": "AlreadyListed",
      "type": "error"
    },
    {
      "inputs": [],
      "name": "AlreadyUsed",
      "type": "error"
    },
    {
      "inputs": [],
      "name": "BadBuyer",
      "type": "error"
    },
    {
      "inputs": [],
      "name": "BadEventId",
      "type": "error"
    },
    {
      "inputs": [],
      "name": "BadQRHash",
      "type": "error"
    },
    {
      "inputs": [],
      "name": "BadTokenId",
      "type": "error"
    },
    {
      "inputs": [
        {
          "internalType": "uint256",
          "name": "numerator",
          "type": "uint256"
        },
        {
          "internalType": "uint256",
          "name": "denominator",
          "type": "uint256"
        }
      ],
      "name": "ERC2981InvalidDefaultRoyalty",
      "type": "error"
    },
    {
      "inputs": [
        {
          "internalType": "address",
          "name": "receiver",
          "type": "address"
        }
      ],
      "name": "ERC2981InvalidDefaultRoyaltyReceiver",
      "type": "error"
    },
    {
      "inputs": [
        {
          "internalType": "uint256",
          "name": "tokenId",
          "type": "uint256"
        },
        {
          "internalType": "uint256",
          "name": "numerator",
          "type": "uint256"
        },
        {
          "internalType": "uint256",
          "name": "denominator",
          "type": "uint256"
        }
      ],
      "name": "ERC2981InvalidTokenRoyalty",
      "type": "error"
    },
    {
      "inputs": [
        {
          "internalType": "uint256",
          "name": "tokenId",
          "type": "uint256"
        },
        {
          "internalType": "address",
          "name": "receiver",
          "type": "address"
        }
      ],
      "name": "ERC2981InvalidTokenRoyaltyReceiver",
      "type": "error"
    },
    {
      "inputs": [
        {
          "internalType": "address",
          "name": "sender",
          "type": "address"
        },
        {
          "internalType": "uint256",
          "name": "tokenId",
          "type": "uint256"
        },
        {
          "internalType": "address",
          "name": "owner",
          "type": "address"
        }
      ],
      "name": "ERC721IncorrectOwner",
      "type": "error"
    },
    {
      "inputs": [
        {
          "internalType": "address",
          "name": "operator",
          "type": "address"
        },
        {
          "internalType": "uint256",
          "name": "tokenId",
          "type": "uint256"
        }
      ],
      "name": "ERC721InsufficientApproval",
      "type": "error"
    },
    {
      "inputs": [
        {
          "internalType": "address",
          "name": "approver",
          "type": "address"
        }
      ],
      "name": "ERC721InvalidApprover",
      "type": "error"
    },
    {
      "inputs": [
        {
          "internalType": "address",
          "name": "operator",
          "type": "address"
        }
      ],
      "name": "ERC721InvalidOperator",
      "type": "error"
    },
    {
      "inputs": [
        {
          "internalType": "address",
          "name": "owner",
          "type": "address"
        }
      ],
      "name": "ERC721InvalidOwner",
      "type": "error"
    },
    {
      "inputs": [
        {
          "internalType": "address",
          "name": "receiver",
          "type": "address"
        }
      ],
      "name": "ERC721InvalidReceiver",
      "type": "error"
    },
    {
      "inputs": [
        {
          "internalType": "address",
          "name": "sender",
          "type": "address"
        }
      ],
      "name": "ERC721InvalidSender",
      "type": "error"
    },
    {
      "inputs": [
        {
          "internalType": "uint256",
          "name": "tokenId",
          "type": "uint256"
        }
      ],
      "name": "ERC721NonexistentToken",
      "type": "error"
    },
    {
      "inputs": [],
      "name": "EnforcedPause",
      "type": "error"
    },
    {
      "inputs": [],
      "name": "EventInactive",
      "type": "error"
    },
    {
      "inputs": [],
      "name": "ExpectedPause",
      "type": "error"
    },
    {
      "inputs": [],
      "name": "FeeTooHigh",
      "type": "error"
    },
    {
      "inputs": [],
      "name": "NameRequired",
      "type": "error"
    },
    {
      "inputs": [],
      "name": "NoFunds",
      "type": "error"
    },
    {
      "inputs": [],
      "name": "NoSeat",
      "type": "error"
    },
    {
      "inputs": [],
      "name": "NotAuthorized",
      "type": "error"
    },
    {
      "inputs": [],
      "name": "NotListed",
      "type": "error"
    },
    {
      "inputs": [],
      "name": "NotOwnerOfTicket",
      "type": "error"
    },
    {
      "inputs": [
        {
          "internalType": "address",
          "name": "owner",
          "type": "address"
        }
      ],
      "name": "OwnableInvalidOwner",
      "type": "error"
    },
    {
      "inputs": [
        {
          "internalType": "address",
          "name": "account",
          "type": "address"
        }
      ],
      "name": "OwnableUnauthorizedAccount",
      "type": "error"
    },
    {
      "inputs": [],
      "name": "PayFailed",
      "type": "error"
    },
    {
      "inputs": [],
      "name": "PctTooLow",
      "type": "error"
    },
    {
      "inputs": [],
      "name": "PriceCap",
      "type": "error"
    },
    {
      "inputs": [],
      "name": "PriceZero",
      "type": "error"
    },
    {
      "inputs": [],
      "name": "ReentrancyGuardReentrantCall",
      "type": "error"
    },
    {
      "inputs": [],
      "name": "SelfBuy",
      "type": "error"
    },
    {
      "inputs": [],
      "name": "SoldOut",
      "type": "error"
    },
    {
      "inputs": [],
      "name": "SupplyZero",
      "type": "error"
    },
    {
      "inputs": [],
      "name": "TicketIsUsed",
      "type": "error"
    },
    {
      "inputs": [],
      "name": "TransferDenied",
      "type": "error"
    },
    {
      "inputs": [],
      "name": "UsedNoTransfer",
      "type": "error"
    },
    {
      "inputs": [],
      "name": "WithdrawFailed",
      "type": "error"
    },
    {
      "inputs": [],
      "name": "WrongPayment",
      "type": "error"
    },
    {
      "anonymous": false,
      "inputs": [
        {
          "indexed": true,
          "internalType": "address",
          "name": "owner",
          "type": "address"
        },
        {
          "indexed": true,
          "internalType": "address",
          "name": "approved",
          "type": "address"
        },
        {
          "indexed": true,
          "internalType": "uint256",
          "name": "tokenId",
          "type": "uint256"
        }
      ],
      "name": "Approval",
      "type": "event"
    },
    {
      "anonymous": false,
      "inputs": [
        {
          "indexed": true,
          "internalType": "address",
          "name": "owner",
          "type": "address"
        },
        {
          "indexed": true,
          "internalType": "address",
          "name": "operator",
          "type": "address"
        },
        {
          "indexed": false,
          "internalType": "bool",
          "name": "approved",
          "type": "bool"
        }
      ],
      "name": "ApprovalForAll",
      "type": "event"
    },
    {
      "anonymous": false,
      "inputs": [
        {
          "indexed": false,
          "internalType": "uint256",
          "name": "_fromTokenId",
          "type": "uint256"
        },
        {
          "indexed": false,
          "internalType": "uint256",
          "name": "_toTokenId",
          "type": "uint256"
        }
      ],
      "name": "BatchMetadataUpdate",
      "type": "event"
    },
    {
      "anonymous": false,
      "inputs": [
        {
          "indexed": true,
          "internalType": "uint256",
          "name": "eventId",
          "type": "uint256"
        },
        {
          "indexed": false,
          "internalType": "string",
          "name": "name",
          "type": "string"
        },
        {
          "indexed": false,
          "internalType": "uint256",
          "name": "ticketPrice",
          "type": "uint256"
        },
        {
          "indexed": false,
          "internalType": "uint256",
          "name": "totalSupply",
          "type": "uint256"
        }
      ],
      "name": "EventCreated",
      "type": "event"
    },
    {
      "anonymous": false,
      "inputs": [
        {
          "indexed": true,
          "internalType": "uint256",
          "name": "eventId",
          "type": "uint256"
        }
      ],
      "name": "EventDeactivated",
      "type": "event"
    },
    {
      "anonymous": false,
      "inputs": [
        {
          "indexed": true,
          "internalType": "uint256",
          "name": "tokenId",
          "type": "uint256"
        },
        {
          "indexed": true,
          "internalType": "address",
          "name": "seller",
          "type": "address"
        }
      ],
      "name": "ListingCancelled",
      "type": "event"
    },
    {
      "anonymous": false,
      "inputs": [
        {
          "indexed": false,
          "internalType": "uint256",
          "name": "_tokenId",
          "type": "uint256"
        }
      ],
      "name": "MetadataUpdate",
      "type": "event"
    },
    {
      "anonymous": false,
      "inputs": [
        {
          "indexed": true,
          "internalType": "address",
          "name": "previousOwner",
          "type": "address"
        },
        {
          "indexed": true,
          "internalType": "address",
          "name": "newOwner",
          "type": "address"
        }
      ],
      "name": "OwnershipTransferred",
      "type": "event"
    },
    {
      "anonymous": false,
      "inputs": [
        {
          "indexed": false,
          "internalType": "address",
          "name": "account",
          "type": "address"
        }
      ],
      "name": "Paused",
      "type": "event"
    },
    {
      "anonymous": false,
      "inputs": [
        {
          "indexed": false,
          "internalType": "uint256",
          "name": "oldFee",
          "type": "uint256"
        },
        {
          "indexed": false,
          "internalType": "uint256",
          "name": "newFee",
          "type": "uint256"
        }
      ],
      "name": "PlatformFeeUpdated",
      "type": "event"
    },
    {
      "anonymous": false,
      "inputs": [
        {
          "indexed": true,
          "internalType": "address",
          "name": "to",
          "type": "address"
        },
        {
          "indexed": false,
          "internalType": "uint256",
          "name": "amount",
          "type": "uint256"
        }
      ],
      "name": "RevenueWithdrawn",
      "type": "event"
    },
    {
      "anonymous": false,
      "inputs": [
        {
          "indexed": true,
          "internalType": "uint256",
          "name": "tokenId",
          "type": "uint256"
        },
        {
          "indexed": true,
          "internalType": "address",
          "name": "seller",
          "type": "address"
        },
        {
          "indexed": false,
          "internalType": "uint256",
          "name": "price",
          "type": "uint256"
        }
      ],
      "name": "TicketListed",
      "type": "event"
    },
    {
      "anonymous": false,
      "inputs": [
        {
          "indexed": true,
          "internalType": "uint256",
          "name": "tokenId",
          "type": "uint256"
        },
        {
          "indexed": true,
          "internalType": "uint256",
          "name": "eventId",
          "type": "uint256"
        },
        {
          "indexed": true,
          "internalType": "address",
          "name": "buyer",
          "type": "address"
        },
        {
          "indexed": false,
          "internalType": "bytes32",
          "name": "qrHash",
          "type": "bytes32"
        }
      ],
      "name": "TicketMinted",
      "type": "event"
    },
    {
      "anonymous": false,
      "inputs": [
        {
          "indexed": true,
          "internalType": "uint256",
          "name": "tokenId",
          "type": "uint256"
        },
        {
          "indexed": true,
          "internalType": "address",
          "name": "seller",
          "type": "address"
        },
        {
          "indexed": true,
          "internalType": "address",
          "name": "buyer",
          "type": "address"
        },
        {
          "indexed": false,
          "internalType": "uint256",
          "name": "price",
          "type": "uint256"
        },
        {
          "indexed": false,
          "internalType": "uint256",
          "name": "fee",
          "type": "uint256"
        }
      ],
      "name": "TicketSold",
      "type": "event"
    },
    {
      "anonymous": false,
      "inputs": [
        {
          "indexed": true,
          "internalType": "uint256",
          "name": "tokenId",
          "type": "uint256"
        },
        {
          "indexed": true,
          "internalType": "uint256",
          "name": "eventId",
          "type": "uint256"
        }
      ],
      "name": "TicketUsed",
      "type": "event"
    },
    {
      "anonymous": false,
      "inputs": [
        {
          "indexed": true,
          "internalType": "address",
          "name": "from",
          "type": "address"
        },
        {
          "indexed": true,
          "internalType": "address",
          "name": "to",
          "type": "address"
        },
        {
          "indexed": true,
          "internalType": "uint256",
          "name": "tokenId",
          "type": "uint256"
        }
      ],
      "name": "Transfer",
      "type": "event"
    },
    {
      "anonymous": false,
      "inputs": [
        {
          "indexed": false,
          "internalType": "address",
          "name": "account",
          "type": "address"
        }
      ],
      "name": "Unpaused",
      "type": "event"
    },
    {
      "inputs": [],
      "name": "MAX_FEE",
      "outputs": [
        {
          "internalType": "uint256",
          "name": "",
          "type": "uint256"
        }
      ],
      "stateMutability": "view",
      "type": "function"
    },
    {
      "inputs": [],
      "name": "accumulatedFees",
      "outputs": [
        {
          "internalType": "uint256",
          "name": "",
          "type": "uint256"
        }
      ],
      "stateMutability": "view",
      "type": "function"
    },
    {
      "inputs": [
        {
          "internalType": "address",
          "name": "to",
          "type": "address"
        },
        {
          "internalType": "uint256",
          "name": "tokenId",
          "type": "uint256"
        }
      ],
      "name": "approve",
      "outputs": [],
      "stateMutability": "nonpayable",
      "type": "function"
    },
    {
      "inputs": [
        {
          "internalType": "address",
          "name": "owner",
          "type": "address"
        }
      ],
      "name": "balanceOf",
      "outputs": [
        {
          "internalType": "uint256",
          "name": "",
          "type": "uint256"
        }
      ],
      "stateMutability": "view",
      "type": "function"
    },
    {
      "inputs": [
        {
          "internalType": "uint256",
          "name": "tokenId",
          "type": "uint256"
        }
      ],
      "name": "buyResaleTicket",
      "outputs": [],
      "stateMutability": "payable",
      "type": "function"
    },
    {
      "inputs": [
        {
          "internalType": "uint256",
          "name": "tokenId",
          "type": "uint256"
        }
      ],
      "name": "cancelListing",
      "outputs": [],
      "stateMutability": "nonpayable",
      "type": "function"
    },
    {
      "inputs": [
        {
          "internalType": "string",
          "name": "name",
          "type": "string"
        },
        {
          "internalType": "string",
          "name": "date",
          "type": "string"
        },
        {
          "internalType": "string",
          "name": "venue",
          "type": "string"
        },
        {
          "internalType": "uint256",
          "name": "ticketPrice",
          "type": "uint256"
        },
        {
          "internalType": "uint256",
          "name": "totalSupply",
          "type": "uint256"
        },
        {
          "internalType": "uint256",
          "name": "maxResalePct",
          "type": "uint256"
        }
      ],
      "name": "createEvent",
      "outputs": [],
      "stateMutability": "nonpayable",
      "type": "function"
    },
    {
      "inputs": [
        {
          "internalType": "uint256",
          "name": "eid",
          "type": "uint256"
        }
      ],
      "name": "deactivateEvent",
      "outputs": [],
      "stateMutability": "nonpayable",
      "type": "function"
    },
    {
      "inputs": [
        {
          "internalType": "uint256",
          "name": "",
          "type": "uint256"
        }
      ],
      "name": "events",
      "outputs": [
        {
          "internalType": "string",
          "name": "name",
          "type": "string"
        },
        {
          "internalType": "string",
          "name": "date",
          "type": "string"
        },
        {
          "internalType": "string",
          "name": "venue",
          "type": "string"
        },
        {
          "internalType": "uint256",
          "name": "ticketPrice",
          "type": "uint256"
        },
        {
          "internalType": "uint256",
          "name": "totalSupply",
          "type": "uint256"
        },
        {
          "internalType": "uint256",
          "name": "ticketsMinted",
          "type": "uint256"
        },
        {
          "internalType": "uint256",
          "name": "maxResalePercent",
          "type": "uint256"
        },
        {
          "internalType": "bool",
          "name": "isActive",
          "type": "bool"
        }
      ],
      "stateMutability": "view",
      "type": "function"
    },
    {
      "inputs": [
        {
          "internalType": "uint256",
          "name": "tokenId",
          "type": "uint256"
        }
      ],
      "name": "getApproved",
      "outputs": [
        {
          "internalType": "address",
          "name": "",
          "type": "address"
        }
      ],
      "stateMutability": "view",
      "type": "function"
    },
    {
      "inputs": [
        {
          "internalType": "uint256",
          "name": "eid",
          "type": "uint256"
        }
      ],
      "name": "getEventDetails",
      "outputs": [
        {
          "components": [
            {
              "internalType": "string",
              "name": "name",
              "type": "string"
            },
            {
              "internalType": "string",
              "name": "date",
              "type": "string"
            },
            {
              "internalType": "string",
              "name": "venue",
              "type": "string"
            },
            {
              "internalType": "uint256",
              "name": "ticketPrice",
              "type": "uint256"
            },
            {
              "internalType": "uint256",
              "name": "totalSupply",
              "type": "uint256"
            },
            {
              "internalType": "uint256",
              "name": "ticketsMinted",
              "type": "uint256"
            },
            {
              "internalType": "uint256",
              "name": "maxResalePercent",
              "type": "uint256"
            },
            {
              "internalType": "bool",
              "name": "isActive",
              "type": "bool"
            }
          ],
          "internalType": "struct EventTicketPlatform.Event",
          "name": "",
          "type": "tuple"
        }
      ],
      "stateMutability": "view",
      "type": "function"
    },
    {
      "inputs": [
        {
          "internalType": "uint256",
          "name": "eid",
          "type": "uint256"
        }
      ],
      "name": "getEventTokens",
      "outputs": [
        {
          "internalType": "uint256[]",
          "name": "",
          "type": "uint256[]"
        }
      ],
      "stateMutability": "view",
      "type": "function"
    },
    {
      "inputs": [
        {
          "internalType": "uint256",
          "name": "tokenId",
          "type": "uint256"
        }
      ],
      "name": "getListingDetails",
      "outputs": [
        {
          "internalType": "bool",
          "name": "active",
          "type": "bool"
        },
        {
          "internalType": "address",
          "name": "seller",
          "type": "address"
        },
        {
          "internalType": "uint256",
          "name": "price",
          "type": "uint256"
        }
      ],
      "stateMutability": "view",
      "type": "function"
    },
    {
      "inputs": [
        {
          "internalType": "uint256",
          "name": "tokenId",
          "type": "uint256"
        }
      ],
      "name": "getQRHash",
      "outputs": [
        {
          "internalType": "bytes32",
          "name": "",
          "type": "bytes32"
        }
      ],
      "stateMutability": "view",
      "type": "function"
    },
    {
      "inputs": [
        {
          "internalType": "address",
          "name": "owner",
          "type": "address"
        },
        {
          "internalType": "address",
          "name": "operator",
          "type": "address"
        }
      ],
      "name": "isApprovedForAll",
      "outputs": [
        {
          "internalType": "bool",
          "name": "",
          "type": "bool"
        }
      ],
      "stateMutability": "view",
      "type": "function"
    },
    {
      "inputs": [
        {
          "internalType": "uint256",
          "name": "tokenId",
          "type": "uint256"
        },
        {
          "internalType": "uint256",
          "name": "price",
          "type": "uint256"
        }
      ],
      "name": "listTicketForResale",
      "outputs": [],
      "stateMutability": "nonpayable",
      "type": "function"
    },
    {
      "inputs": [
        {
          "internalType": "uint256",
          "name": "",
          "type": "uint256"
        }
      ],
      "name": "listings",
      "outputs": [
        {
          "internalType": "uint256",
          "name": "price",
          "type": "uint256"
        },
        {
          "internalType": "address",
          "name": "seller",
          "type": "address"
        },
        {
          "internalType": "bool",
          "name": "active",
          "type": "bool"
        }
      ],
      "stateMutability": "view",
      "type": "function"
    },
    {
      "inputs": [
        {
          "internalType": "uint256",
          "name": "tokenId",
          "type": "uint256"
        },
        {
          "internalType": "bytes32",
          "name": "providedHash",
          "type": "bytes32"
        }
      ],
      "name": "markTicketAsUsed",
      "outputs": [],
      "stateMutability": "nonpayable",
      "type": "function"
    },
    {
      "inputs": [
        {
          "internalType": "uint256",
          "name": "tokenId",
          "type": "uint256"
        }
      ],
      "name": "maxResalePrice",
      "outputs": [
        {
          "internalType": "uint256",
          "name": "",
          "type": "uint256"
        }
      ],
      "stateMutability": "view",
      "type": "function"
    },
    {
      "inputs": [
        {
          "internalType": "uint256",
          "name": "eventId",
          "type": "uint256"
        },
        {
          "internalType": "string",
          "name": "seatNumber",
          "type": "string"
        },
        {
          "internalType": "string",
          "name": "metadataURI",
          "type": "string"
        },
        {
          "internalType": "address",
          "name": "buyer",
          "type": "address"
        }
      ],
      "name": "mintTicket",
      "outputs": [],
      "stateMutability": "payable",
      "type": "function"
    },
    {
      "inputs": [],
      "name": "name",
      "outputs": [
        {
          "internalType": "string",
          "name": "",
          "type": "string"
        }
      ],
      "stateMutability": "view",
      "type": "function"
    },
    {
      "inputs": [],
      "name": "owner",
      "outputs": [
        {
          "internalType": "address",
          "name": "",
          "type": "address"
        }
      ],
      "stateMutability": "view",
      "type": "function"
    },
    {
      "inputs": [
        {
          "internalType": "uint256",
          "name": "tokenId",
          "type": "uint256"
        }
      ],
      "name": "ownerOf",
      "outputs": [
        {
          "internalType": "address",
          "name": "",
          "type": "address"
        }
      ],
      "stateMutability": "view",
      "type": "function"
    },
    {
      "inputs": [],
      "name": "pause",
      "outputs": [],
      "stateMutability": "nonpayable",
      "type": "function"
    },
    {
      "inputs": [],
      "name": "paused",
      "outputs": [
        {
          "internalType": "bool",
          "name": "",
          "type": "bool"
        }
      ],
      "stateMutability": "view",
      "type": "function"
    },
    {
      "inputs": [],
      "name": "platformFeePercent",
      "outputs": [
        {
          "internalType": "uint256",
          "name": "",
          "type": "uint256"
        }
      ],
      "stateMutability": "view",
      "type": "function"
    },
    {
      "inputs": [],
      "name": "renounceOwnership",
      "outputs": [],
      "stateMutability": "nonpayable",
      "type": "function"
    },
    {
      "inputs": [
        {
          "internalType": "uint256",
          "name": "tokenId",
          "type": "uint256"
        },
        {
          "internalType": "uint256",
          "name": "salePrice",
          "type": "uint256"
        }
      ],
      "name": "royaltyInfo",
      "outputs": [
        {
          "internalType": "address",
          "name": "receiver",
          "type": "address"
        },
        {
          "internalType": "uint256",
          "name": "amount",
          "type": "uint256"
        }
      ],
      "stateMutability": "view",
      "type": "function"
    },
    {
      "inputs": [
        {
          "internalType": "address",
          "name": "from",
          "type": "address"
        },
        {
          "internalType": "address",
          "name": "to",
          "type": "address"
        },
        {
          "internalType": "uint256",
          "name": "tokenId",
          "type": "uint256"
        }
      ],
      "name": "safeTransferFrom",
      "outputs": [],
      "stateMutability": "nonpayable",
      "type": "function"
    },
    {
      "inputs": [
        {
          "internalType": "address",
          "name": "from",
          "type": "address"
        },
        {
          "internalType": "address",
          "name": "to",
          "type": "address"
        },
        {
          "internalType": "uint256",
          "name": "tokenId",
          "type": "uint256"
        },
        {
          "internalType": "bytes",
          "name": "data",
          "type": "bytes"
        }
      ],
      "name": "safeTransferFrom",
      "outputs": [],
      "stateMutability": "nonpayable",
      "type": "function"
    },
    {
      "inputs": [
        {
          "internalType": "address",
          "name": "operator",
          "type": "address"
        },
        {
          "internalType": "bool",
          "name": "approved",
          "type": "bool"
        }
      ],
      "name": "setApprovalForAll",
      "outputs": [],
      "stateMutability": "nonpayable",
      "type": "function"
    },
    {
      "inputs": [
        {
          "internalType": "address",
          "name": "receiver",
          "type": "address"
        },
        {
          "internalType": "uint96",
          "name": "feeBps",
          "type": "uint96"
        }
      ],
      "name": "setDefaultRoyalty",
      "outputs": [],
      "stateMutability": "nonpayable",
      "type": "function"
    },
    {
      "inputs": [
        {
          "internalType": "uint256",
          "name": "newFeeBps",
          "type": "uint256"
        }
      ],
      "name": "setPlatformFee",
      "outputs": [],
      "stateMutability": "nonpayable",
      "type": "function"
    },
    {
      "inputs": [
        {
          "internalType": "bytes4",
          "name": "interfaceId",
          "type": "bytes4"
        }
      ],
      "name": "supportsInterface",
      "outputs": [
        {
          "internalType": "bool",
          "name": "",
          "type": "bool"
        }
      ],
      "stateMutability": "view",
      "type": "function"
    },
    {
      "inputs": [],
      "name": "symbol",
      "outputs": [
        {
          "internalType": "string",
          "name": "",
          "type": "string"
        }
      ],
      "stateMutability": "view",
      "type": "function"
    },
    {
      "inputs": [
        {
          "internalType": "uint256",
          "name": "",
          "type": "uint256"
        }
      ],
      "name": "tickets",
      "outputs": [
        {
          "internalType": "uint256",
          "name": "eventId",
          "type": "uint256"
        },
        {
          "internalType": "string",
          "name": "seatNumber",
          "type": "string"
        },
        {
          "internalType": "uint256",
          "name": "originalPrice",
          "type": "uint256"
        },
        {
          "internalType": "address",
          "name": "originalBuyer",
          "type": "address"
        },
        {
          "internalType": "bool",
          "name": "isUsed",
          "type": "bool"
        },
        {
          "internalType": "bytes32",
          "name": "qrHash",
          "type": "bytes32"
        },
        {
          "internalType": "uint256",
          "name": "transferCount",
          "type": "uint256"
        }
      ],
      "stateMutability": "view",
      "type": "function"
    },
    {
      "inputs": [
        {
          "internalType": "uint256",
          "name": "tokenId",
          "type": "uint256"
        }
      ],
      "name": "tokenURI",
      "outputs": [
        {
          "internalType": "string",
          "name": "",
          "type": "string"
        }
      ],
      "stateMutability": "view",
      "type": "function"
    },
    {
      "inputs": [
        {
          "internalType": "address",
          "name": "from",
          "type": "address"
        },
        {
          "internalType": "address",
          "name": "to",
          "type": "address"
        },
        {
          "internalType": "uint256",
          "name": "tokenId",
          "type": "uint256"
        }
      ],
      "name": "transferFrom",
      "outputs": [],
      "stateMutability": "nonpayable",
      "type": "function"
    },
    {
      "inputs": [
        {
          "internalType": "address",
          "name": "newOwner",
          "type": "address"
        }
      ],
      "name": "transferOwnership",
      "outputs": [],
      "stateMutability": "nonpayable",
      "type": "function"
    },
    {
      "inputs": [],
      "name": "unpause",
      "outputs": [],
      "stateMutability": "nonpayable",
      "type": "function"
    },
    {
      "inputs": [],
      "name": "withdrawRevenue",
      "outputs": [],
      "stateMutability": "nonpayable",
      "type": "function"
    },
    {
      "stateMutability": "payable",
      "type": "receive"
    }
  ],
  "bytecode": "0x608034620003fe576200306c80380391601f19601f93818582011683019360018060401b039184861083871117620004035780859260409788528339602094859181010312620003fe57516200005462000419565b600b81526a115d995b9d151a58dad95d60aa1b858201526200007562000419565b936004978886526308aa892b60e31b87870152825195858711620003e9576000968754946001958681811c91168015620003de575b8b821014620003cb5790818584931162000378575b508a9085831160011462000315578a9262000309575b5050600019600383901b1c191690851b1787555b805192868411620002f65784548581811c91168015620002eb575b8a821014620002d857908184869594931162000281575b5089928411600114620002205750879262000214575b5050600019600383901b1c191690821b1781555b3315620001fd5760098054336001600160a01b03198216811790925587519291906001600160a01b03167f8be0079c531659141344cd1fd0a4f28419497f9722a3daafe3b4186f6b6457e08780a3600a556103e88211620001ef5750600e5583519182850191821183831017620001dc5750836101f4949550523381520152607d60a21b331760075551612c3290816200043a8239f35b634e487b7160e01b815260418652602490fd5b63cd4e616760e01b81528690fd5b8551631e4fbdf760e01b8152808801859052602490fd5b01519050388062000131565b85895289892086959093929116895b8b8282106200026a575050841162000250575b505050811b01815562000145565b015160001960f88460031b161c1916905538808062000242565b83850151865588979095019493840193016200022f565b90919293508589528989208480870160051c8201928c8810620002ce575b9187968992969594930160051c01915b828110620002bf5750506200011b565b8b8155879650889101620002af565b925081926200029f565b634e487b7160e01b895260228c52602489fd5b90607f169062000104565b634e487b7160e01b885260418b52602488fd5b015190503880620000d5565b9086889416918b80528c8c20928d8d905b82821062000360575050841162000346575b505050811b018755620000e9565b015160001960f88460031b161c1916905538808062000338565b8385015186558b979095019493840193018e62000326565b9091508980528a8a208580850160051c8201928d8610620003c1575b918991869594930160051c01915b828110620003b2575050620000bf565b8c8155859450899101620003a2565b9250819262000394565b634e487b7160e01b8a5260228d5260248afd5b90607f1690620000aa565b60418a634e487b7160e01b6000525260246000fd5b600080fd5b634e487b7160e01b600052604160045260246000fd5b60408051919082016001600160401b03811183821017620004035760405256fe6080806040526004361015610025575b50361561001b57600080fd5b34600f5401600f55005b60003560e01c90816301ffc9a71461230d5750806304634d8d1461225957806306fdde03146121b6578063081812fc14612178578063095ea7b3146120915780630b79143014611fd55780630e31b47214611f6a57806312e8e2c314611efc5780631d9c5d5c14611cf65780631f9ab38d14611c3857806323b872dd14611c215780632a55205a14611bad578063305a67a814611af55780633f4ba83a14611a8b57806342842e0e14611a5d578063443ed4731461135b578063492a927114610df35780634f573cb214610d4757806350b4471214610cb5578063587f5ed714610c975780635c975abb14610c745780636053b0ef14610abb5780636352211e14610a8b57806370a0823114610a32578063715018a6146109e75780638456cb591461098d5780638c639a851461096f5780638da5cb5b14610946578063957a632e146108a657806395d89b41146107e1578063a22cb46514610733578063b88d4fde146106c5578063bc063e1a146106a8578063c0ba155114610597578063c830f27a14610539578063c87b56dd146104dc578063de74e57b1461048f578063e985e9c514610439578063ec38d5a0146102bd578063f2fde38b146102475763fb05da2e146101f5573861000f565b3461024257602036600319011261024257600435600052601360205260606040600020600181015490546040519160ff8160a01c161515835260018060a01b031660208301526040820152f35b600080fd5b34610242576020366003190112610242576102606123ac565b610268612637565b6001600160a01b039081169081156102a457600980546001600160a01b03198116841790915516600080516020612bbd833981519152600080a3005b604051631e4fbdf760e01b815260006004820152602490fd5b346102425760208060031936011261024257604051600435916102df82612452565b600060e0606093848152848482015284604082015282858201528260808201528260a08201528260c082015201528215801561042e575b61041c5761012092600052601181526040600020906040519261033884612452565b610341836124ac565b845261034f600184016124ac565b92828501938452610362600282016124ac565b93604086019485526003820154948387019586526103f86004840154916080890192835260058501549360a08a0194855260ff600760068801549760c08d019889520154169660e08b0197151588526103e86103d2604051809e819e8d83525191610100809e82015201906123d8565b9251601f198d8503810160408f015293906123d8565b9251918b840301908b01526123d8565b955160808801525160a08701525160c08601525160e0850152511515908301520390f35b604051633a28694560e21b8152600490fd5b50600d548311610316565b34610242576040366003190112610242576104526123ac565b61045a6123c2565b9060018060a01b03809116600052600560205260406000209116600052602052602060ff604060002054166040519015158152f35b346102425760203660031901126102425760043560005260136020526060604060002060ff6001825492015460405192835260018060a01b038116602084015260a01c1615156040820152f35b34610242576020366003190112610242576004356104f981612871565b50600052600660205261053561051260406000206124ac565b60006040516105208161246e565b526040519182916020835260208301906123d8565b0390f35b34610242576020366003190112610242576004356000818152600260205260409020546001600160a01b0316156105855760005260126020526020600460406000200154604051908152f35b604051637bece0b360e01b8152600490fd5b34610242576040366003190112610242576004356105b3612637565b6000818152600260205260409020546001600160a01b039081161561058557816000526012602052604060002090600382019060ff825460a01c166106965760048301546024350361068457836000526013602052600160406000200180549060ff8260a01c1661065d575b5050815460ff60a01b1916600160a01b179091555054907fad0a02848182e7d3a9bb0ae2cc919bdef92f9da6b0a45ced3656cf5443212ede600080a3005b60ff60a01b19821690551683600080516020612b9d833981519152600080a383808061061f565b604051637b2b3e9960e11b8152600490fd5b6040516307b8c82160e41b8152600490fd5b346102425760003660031901126102425760206040516103e88152f35b34610242576080366003190112610242576106de6123ac565b6106e66123c2565b6064359190604435906001600160401b03841161024257366023850112156102425761071f610731943690602481600401359101612600565b9261072b838383612686565b336128dc565b005b346102425760403660031901126102425761074c6123ac565b6024359081151590818303610242576001600160a01b03169182156107c85761079a9033600052600560205260406000208460005260205260406000209060ff801983541691151516179055565b6040519081527f17307eab39ab6107e8899845ad3d59bd9653f200f220920489ca2b5937696c3160203392a3005b604051630b61174360e31b815260048101849052602490fd5b34610242576000366003190112610242576040516000906001805461080581612418565b8084529082811690811561087e5750600114610840575b6105358361082c81870382612489565b6040519182916020835260208301906123d8565b92508060005260209283600020916000925b82841061086b5750505081019091019061082c8161081c565b8054858501870152928501928101610852565b610535955061082c93506020915091849260ff191682840152151560051b820101935061081c565b34610242576020366003190112610242576004356108c2612637565b8015801561093b575b61041c5780600052601160205260ff600760406000200154161561092957806000526011602052600760406000200160ff1981541690557f9bec5b77a290657edefc9defa075c60a874e90f7cc9496853ca9962d58a4ffdd600080a2005b60405163232990cb60e01b8152600490fd5b50600d5481116108cb565b34610242576000366003190112610242576009546040516001600160a01b039091168152602090f35b34610242576000366003190112610242576020600e54604051908152f35b34610242576000366003190112610242576109a6612637565b6109ae612a3e565b600160ff19600b541617600b557f62e78cea01bee320cd4e420270b5ea74000d11b0c9f74754ebdbfc544b05a2586020604051338152a1005b3461024257600036600319011261024257610a00612637565b600980546001600160a01b031981169091556000906001600160a01b0316600080516020612bbd8339815191528280a3005b34610242576020366003190112610242576001600160a01b03610a536123ac565b168015610a725760005260036020526020604060002054604051908152f35b6040516322718ad960e21b815260006004820152602490fd5b34610242576020366003190112610242576020610aa9600435612871565b6040516001600160a01b039091168152f35b3461024257610ac936612587565b90610ad2612a3e565b8060005260206002815260018060a01b039081604060002054161561058557610afa83612871565b8233911603610c6257826000526012815260ff60036040600020015460a01c16610c5057826000526013815260ff60016040600020015460a01c16610c3e578315610c2c5782600052601281526064610b6e60406000206002810154905460005260118452600660406000200154906129ff565b048411610c1a576040519160608301906001600160401b03821184831017610c04577f22968ec3be3687b180f3544163a034b88d57b48159d9a7e9a1b610fdb2d05f8093610bf992604052868152838101913383526001604083019281845288600052601387526040600020905181550192511660018060a01b031983541617825551151590612a21565b6040519384523393a3005b634e487b7160e01b600052604160045260246000fd5b60405163c28fc63b60e01b8152600490fd5b604051637294708f60e11b8152600490fd5b6040516328f560bb60e21b8152600490fd5b604051630d9a55c560e21b8152600490fd5b604051632b31014960e11b8152600490fd5b3461024257600036600319011261024257602060ff600b54166040519015158152f35b34610242576000366003190112610242576020600f54604051908152f35b3461024257602036600319011261024257600435600052601260205260406000208054610ce4600183016124ac565b9160028101549060038101549060ff6005600483015492015492610d1a604051978897885260e0602089015260e08801906123d8565b94604087015260018060a01b038116606087015260a01c161515608085015260a084015260c08301520390f35b3461024257600036600319011261024257610d60612637565b610d68612a5c565b600f548015610de1576000600f5560018060a01b0360008080808585600954165af1610d926128ac565b5015610dcf5760207f86a5cc8fe9af9ae68fb50f62885307a7755a30cbd290131644377f0bd94a7181916009541692604051908152a26001600a55005b604051631d42c86760e21b8152600490fd5b60405163043f9e1160e41b8152600490fd5b346102425760c0366003190112610242576004356001600160401b03811161024257610e239036906004016125b8565b906024356001600160401b03811161024257610e439036906004016125b8565b9290916044356001600160401b03811161024257610e659036906004016125b8565b90610e6e612637565b83156113495760643515610c2c576084351561133757606460a4351061132557610ed291610ec6610ea0600d54612a12565b9687600d5560405198610eb28a612452565b610ebd368989612600565b8a523691612600565b60208801523691612600565b604085015260643560608501526084356080850152600060a085015260a43560c0850152600160e08501528260005260116020526040600020845180519060018060401b038211610c04578190610f298454612418565b601f81116112d5575b50602090601f83116001146112695760009261125e575b50508160011b916000199060031b1c19161781555b60208501518051906001600160401b038211610c04578190610f836001850154612418565b601f811161120b575b50602090601f83116001146111995760009261118e575b50508160011b916000199060031b1c19161760018201555b604085015180519095906001600160401b038111610c0457610fe06002840154612418565b601f8111611147575b506020601f82116001146110bc5760e061107593836080979694600794600080516020612b7d8339815191529b9c6000926110b1575b50508160011b916000199060031b1c19161760028501555b6060810151600385015586810151600485015560a0810151600585015560c081015160068501550151151591019060ff801983541691151516179055565b826040519384926060845281606085015284840137600082820184015260643560208301526084356040830152601f01601f19168101030190a2005b015190508c8061101f565b6002840160005260206000209760005b601f198416811061112f575061107593600184600080516020612b7d8339815191529a9b60079560e09560809b9a98601f19811610611116575b505050811b016002850155611037565b015160001960f88460031b161c191690558c8080611106565b828201518a55600190990198602092830192016110cc565b600284016000526020600020601f830160051c810160208410611187575b601f830160051c8201811061117b575050610fe9565b60008155600101611165565b5080611165565b015190508780610fa3565b9250600184016000526020600020906000935b601f19841685106111f0576001945083601f198116106111d7575b505050811b016001820155610fbb565b015160001960f88460031b161c191690558780806111c7565b818101518355602094850194600190930192909101906111ac565b909150600184016000526020600020601f840160051c810160208510611257575b90849392915b601f830160051c82018110611248575050610f8c565b60008155859450600101611232565b508061122c565b015190508780610f49565b9250836000526020600020906000935b601f19841685106112ba576001945083601f198116106112a1575b505050811b018155610f5e565b015160001960f88460031b161c19169055878080611294565b81810151835560209485019460019093019290910190611279565b909150836000526020600020601f840160051c81016020851061131e575b90849392915b601f830160051c8201811061130f575050610f32565b600081558594506001016112f9565b50806112f3565b604051632e85ecf160e21b8152600490fd5b604051639fbba64f60e01b8152600490fd5b604051636cc61e7360e11b8152600490fd5b6080366003190112610242576024356001600160401b038111610242576113869036906004016125b8565b6044356001600160401b038111610242576113a59036906004016125b8565b906064356001600160a01b0381169003610242576113c1612637565b6113c9612a3e565b600435158015611a50575b61041c57600435600052601160205260ff6007604060002001541615611a3e576004356000526011602052604060002093600585015460048601541115611a2c5760038501543403611a1a576064356001600160a01b031615611a085783156119f657611442600c54612a12565b9384600c5560016005870154016005870155604051906020820186815260018060601b031960643560601b166040840152426054840152446074840152607483528260a081011060018060401b0360a085011117610c045760a08301604081905283519091206003989098015493906001600160401b036101808501908111911117610c04576114e391610180840160405260043560a08501523691612600565b60c0820190815260e08201929092526064356001600160a01b0316610100820152600061012082018190526101408201879052610160820181905285815260126020526040902060a0820151815591518051906001600160401b038211610c04576115516001850154612418565b601f81116119af575b50602090601f8311600114611939579180600594926101609460009261192e575b50508160011b916000199060031b1c19161760018501555b60e081015160028501556101008101516003850180546001600160a01b0319166001600160a01b03929092169190911781556101208201516115d89190151590612a21565b61014081015160048501550151910155600435600052601460205260406000208054600160401b811015610c0457600181018083558110156119185784916000526020600020015534600f5401600f556040516116348161246e565b600081526001600160a01b0361164c85606435612a7f565b166118ff576064353b6117ee575b50611666913691612600565b600082815260066020526040902081519193916001600160401b038111610c04576116918254612418565b601f81116117a6575b50602094601f821160011461174057948192939495600092611735575b50508160011b916000199060031b1c19161790555b7ff8e1a15aba9398e019f0b49df1a4fde98ee17ae345cb5f6b5e2c27f5033e8ce76020604051848152a16040519081526064356001600160a01b031691600435917f8b71980b42a8bf9d95f9ae88c85a69c95254d6a77d9a6ce2f28b88a36607848590602090a4005b0151905085806116b7565b601f198216958360005260206000209160005b88811061178e57508360019596979810611775575b505050811b0190556116cc565b015160001960f88460031b161c19169055858080611768565b91926020600181928685015181550194019201611753565b826000526020600020601f830160051c810191602084106117e4575b601f0160051c01905b8181106117d8575061169a565b600081556001016117cb565b90915081906117c2565b60405160208180611828630a85bd0160e11b95868352336004840152600060248401528960448401526080606484015260848301906123d8565b038160006064356001600160a01b03165af1600091816118ba575b50611880576118506128ac565b8051908161187b57604051633250574960e11b81526064356001600160a01b03166004820152602490fd5b602001fd5b6001600160e01b031916036118975761166661165a565b604051633250574960e11b81526064356001600160a01b03166004820152602490fd5b9091506020813d6020116118f7575b816118d660209383612489565b8101031261024257516001600160e01b031981168103610242579087611843565b3d91506118c9565b6040516339e3563760e11b815260006004820152602490fd5b634e487b7160e01b600052603260045260246000fd5b015190508a8061157b565b906001850160005260206000209160005b601f1985168110611997575092600594926001926101609583601f1981161061197e575b505050811b016001850155611593565b015160001960f88460031b161c191690558a808061196e565b9192602060018192868501518155019401920161194a565b600185016000526020600020601f840160051c8101602085106119ef575b601f830160051c820181106119e357505061155a565b600081556001016119cd565b50806119cd565b604051634d1cf9d360e11b8152600490fd5b60405163ed5fec0160e01b8152600490fd5b60405163788a686f60e01b8152600490fd5b6040516352df9fe560e01b8152600490fd5b604051639fe5276f60e01b8152600490fd5b50600d54600435116113d4565b3461024257610731611a6e36612552565b9060405192611a7c8461246e565b6000845261072b838383612686565b3461024257600036600319011261024257611aa4612637565b600b5460ff811615611ae35760ff1916600b557f5db9ee0a495bf2e6ff9c91a7834c1ba4fdd244a5e8aa4e537bd38aeae4b073aa6020604051338152a1005b604051638dfc202b60e01b8152600490fd5b34610242576020366003190112610242576004356000818152600260205260409020546001600160a01b039190821615610585578060005260136020526001604060002001805460ff8160a01c1615611b9b5783811693338514159081611b8c575b50611b7a5760ff60a01b19169055600080516020612b9d833981519152600080a3005b60405163ea8e4eb560e01b8152600490fd5b90506009541633141585611b57565b60405163665c1c5760e01b8152600490fd5b3461024257611bbb36612587565b600091825260086020526040909120546001600160a01b03808216929160a01c908315611c0c575b5061271091611bfb916001600160601b0316906129ff565b04906105356040519283928361259d565b600754908116935060a01c9050612710611be3565b3461024257610731611c3236612552565b91612686565b34610242576020806003193601126102425760043580158015611ceb575b61041c5760005260148152604060002060405190818382549182815201908192600052846000209060005b86828210611cd7578686611c9782880383612489565b604051928392818401908285525180915260408401929160005b828110611cc057505050500390f35b835185528695509381019392810192600101611cb1565b835485529093019260019283019201611c81565b50600d548111611c56565b60208060031936011261024257600435611d0e612a5c565b611d16612a3e565b60008181526002835260409020546001600160a01b0390811615610585578160005260138352604060002092600184019081549460ff8660a01c1615611b9b575494853403611a1a57846000526012825260ff60036040600020015460a01c16610c505783811693843314611eea57612710611d94600e54896129ff565b049384880392888411611ed45760ff60a01b19169055856000526012835260056040600020016001815401905583600f5401600f5560ff1990600182601054161760105560405190611de58261246e565b600082523315611ebb57611df98833612a7f565b90811680611e1a57604051637e27328960e01b8152600481018a9052602490fd5b9680989703611e985750600080938193611e3883948a338d336128dc565b60105416601055885af1611e4a6128ac565b5015611e86576040519485528401527f9f06fa0e27b6e648325c777b4a32d84d65596bac30bd2c07f9e2c6e883bc112060403394a46001600a55005b60405163197121f560e01b8152600490fd5b6040516364283d7b60e01b8152908190611eb790898b60048501612663565b0390fd5b604051633250574960e11b815260006004820152602490fd5b634e487b7160e01b600052601160045260246000fd5b6040516303ad157560e51b8152600490fd5b3461024257602036600319011261024257600435611f18612637565b6103e88111611f58577fd347e206f25a89b917fc9482f1a2d294d749baa4dc9bde7fb495ee11fe4916436040600e548151908152836020820152a1600e55005b60405163cd4e616760e01b8152600490fd5b34610242576020366003190112610242576004356000818152600260205260409020546001600160a01b03161561058557600052601260205260206064611fcc60406000206002810154905460005260118452600660406000200154906129ff565b04604051908152f35b346102425760203660031901126102425760043560005260116020526120556040600020612002816124ac565b9061200f600182016124ac565b61201b600283016124ac565b91600381015492600482015461207160058401549261206360ff6007600688015497015416966040519a8b9a610100808d528c01906123d8565b908a820360208c01526123d8565b9088820360408a01526123d8565b946060870152608086015260a085015260c0840152151560e08301520390f35b34610242576040366003190112610242576120aa6123ac565b6024356120b681612871565b33151580612165575b80612138575b612120576001600160a01b039283169282918491167f8c5be1e5ebec7d5bd14f71427d1e84f3dd0314c0f7b2291e5b200ac8c7c3b925600080a4600090815260046020526040902080546001600160a01b0319169091179055005b60405163a9fbf51f60e01b8152336004820152602490fd5b5060018060a01b038116600052600560205260406000203360005260205260ff60406000205416156120c5565b506001600160a01b0381163314156120bf565b346102425760203660031901126102425760043561219581612871565b506000526004602052602060018060a01b0360406000205416604051908152f35b34610242576000366003190112610242576040516000906000546121d981612418565b80835260019180831690811561087e5750600114612201576105358361082c81870382612489565b600080805260209450917f290decd9548b62a8d60345a988386fc84ba6bc95484008f6362f93160ef3e5635b8284106122465750505081019091019061082c8161081c565b805485850187015292850192810161222d565b34610242576040366003190112610242576122726123ac565b602435906001600160601b0382168083036102425761228f612637565b6127108082116122ef5750506001600160a01b03169081156122d657604080519081016001600160401b038111911117610c045760a01b6001600160a01b03191617600755005b604051635b6cc80560e11b815260006004820152602490fd5b6044925060405191636f483d0960e01b835260048301526024820152fd5b34610242576020366003190112610242576004359063ffffffff60e01b82168092036102425760209163152a902d60e11b811490811561234f575b5015158152f35b632483248360e11b811491508115612369575b5083612348565b6380ac58cd60e01b81149150811561239b575b811561238a575b5083612362565b6301ffc9a760e01b14905083612383565b635b5e139f60e01b8114915061237c565b600435906001600160a01b038216820361024257565b602435906001600160a01b038216820361024257565b919082519283825260005b848110612404575050826000602080949584010152601f8019910116010190565b6020818301810151848301820152016123e3565b90600182811c92168015612448575b602083101461243257565b634e487b7160e01b600052602260045260246000fd5b91607f1691612427565b61010081019081106001600160401b03821117610c0457604052565b602081019081106001600160401b03821117610c0457604052565b601f909101601f19168101906001600160401b03821190821017610c0457604052565b90604051918260008254926124c084612418565b90818452600194858116908160001461252f57506001146124ec575b50506124ea92500383612489565b565b9093915060005260209081600020936000915b8183106125175750506124ea935082010138806124dc565b855488840185015294850194879450918301916124ff565b9150506124ea94506020925060ff191682840152151560051b82010138806124dc565b6060906003190112610242576001600160a01b0390600435828116810361024257916024359081168103610242579060443590565b6040906003190112610242576004359060243590565b6001600160a01b039091168152602081019190915260400190565b9181601f84011215610242578235916001600160401b038311610242576020838186019501011161024257565b6001600160401b038111610c0457601f01601f191660200190565b92919261260c826125e5565b9161261a6040519384612489565b829481845281830111610242578281602093846000960137010152565b6009546001600160a01b0316330361264b57565b60405163118cdaa760e01b8152336004820152602490fd5b6001600160a01b0391821681526020810192909252909116604082015260600190565b906001600160a01b039081168015611ebb5760009184835284602092600284526040938385872054166127f3575b828652600281528385872054169586913315158061275c575b50906002600080516020612bdd833981519152928461273c575b85835260038152888320805460010190558683525286812080546001600160a01b0319168517905580a48316820361271f5750505050565b516364283d7b60e01b8152928392611eb792919060048501612663565b61274587612853565b8483526003815288832080546000190190556126e7565b919394509150806127b2575b15612778578792918691386126cd565b848887612795576024915190637e27328960e01b82526004820152fd5b905163177e802f60e01b8152908190611eb790336004840161259d565b5033861480156127d7575b806127685750878252600481523384868420541614612768565b5085825260058152848220338352815260ff85832054166127bd565b9091506012815260ff6003858720015460a01c166128425760ff601054161580612834575b612824579086916126b4565b8351622015c760ea1b8152600490fd5b508260095416331415612818565b835163a300f11f60e01b8152600490fd5b600090815260046020526040902080546001600160a01b0319169055565b6000818152600260205260409020546001600160a01b0316908115612894575090565b60249060405190637e27328960e01b82526004820152fd5b3d156128d7573d906128bd826125e5565b916128cb6040519384612489565b82523d6000602084013e565b606090565b9293823b6128ec575b5050505050565b6129309060018060a01b038094169560405194859481630a85bd0160e11b9889885216600487015216602485015260448401526080606484015260848301906123d8565b03906020816000938185885af1908290826129b0575b505061297e57826129556128ac565b805191908261297757604051633250574960e11b815260048101839052602490fd5b6020915001fd5b6001600160e01b03191603612998575038808080806128e5565b60249060405190633250574960e11b82526004820152fd5b909192506020813d82116129f7575b816129cc60209383612489565b810103126129f35751906001600160e01b0319821682036129f05750903880612946565b80fd5b5080fd5b3d91506129bf565b81810292918115918404141715611ed457565b6000198114611ed45760010190565b805460ff60a01b191691151560a01b60ff60a01b16919091179055565b60ff600b5416612a4a57565b60405163d93c066560e01b8152600490fd5b6002600a5414612a6d576002600a55565b604051633ee5aeb560e01b8152600490fd5b6000828152600260209081526040808320546001600160a01b039594929391908616612b28575b90600080516020612bdd8339815191529185825260028552600287828420541697889586612b08575b169586612af2575b87845252812080546001600160a01b0319168517905580a490565b8684526003815282842060018154019055612ad7565b612b1189612853565b868552600388528385208054600019019055612acf565b6012845260ff6003828420015460a01c16612b6c5760ff601054161580612b5e575b15612aa65751622015c760ea1b8152600490fd5b508560095416331415612b4a565b5163a300f11f60e01b8152600490fdfe42e6867e52299b45991308391cccb9ee79466d194059ff10fc15c2d88f0ea0618e25282255ab31897df2b0456bb993ac7f84d376861aefd84901d2d63a7428a28be0079c531659141344cd1fd0a4f28419497f9722a3daafe3b4186f6b6457e0ddf252ad1be2c89b69c2b068fc378daa952ba7f163c4a11628f55a4df523b3efa2646970667358221220e18ab87b89413f58fd832252efe3ba8e6c84cc6a247f01b7444e374ef3931bb764736f6c63430008140033",
  "linkReferences": {},
  "deployedLinkReferences": {}
}